:100000000C94D70F0C9401100C9401100C94011057
:100010000C9401100C9401100C9401100C9401101C
:100020000C9401100C9401100C9401100C9401100C
:100030000C9401100C9440400C9401100C9401108D
:100040000C94A2820C9402830C94523E0C940110E6
:100050000C9478820C9448820C9401100C9401103A
:100060000C9401100C9401100C9401100C940110CC
:100070000C9401100C9401100C9401100C940110BC
:100080000C9473450C9401100C940110AD14B2142F
:10009000B714C314F714F714CF14D714DF14EB14E8
:1000A000023A053AF839FC391C3A1C3A093A0D3A39
:1000B000133A173A9045A045A245C145AB45C14505
:1000C000B445C145D24AEB4AEB4AEB4AEB4AEB4A0C
:1000D000EB4AEB4AEB4AEB4AEB4AEB4AEB4AEB4A78
:1000E000EB4AEB4AEB4AEB4AEB4AEB4AEB4AEB4A68
:1000F000EB4A944A9F4A7E4A734A1D4A284A9549C8
:10010000894A524A5D4AAA4AB54AA6498249C04A22
:10011000474AEB4A684A3C4A334AEB4AEB4AEB4AC5
:10012000FC49074A124AEB4AEB4AEB4AEB4AEB4AD4
:10013000EB4A944A9F4A7E4A734A1D4A284A954987
:10014000894A524A5D4AAA4AB54AA6498249C04AE2
:10015000474AEB4A684A3C4A334AEB4AEB4AEB4A85
:10016000FC49074A124A084AD73B3BCE016E84BC81
:10017000BFFDC12F3D6C74319ABD56833DDA3D0001
:10018000C77F11BED9E4BB4C3E916BAAAABE00004A
:1001900000803F05A84CCDB2D44EB93836A9020C28
:1001A00050B9918688083CA6AAAA2ABE0000008001
:1001B0003F00616476616E6365204C205B303D6F6B
:1001C00066665D00657874727564657220636F6F32
:1001D0006C6572207370656564205B302D32353537
:1001E0005D0064697374616E636520746F2072656D
:1001F0007472616374207768656E206865617469E4
:100200006E67205B6D6D5D0074656D702E20666F8E
:10021000722072657472616374696F6E20776865AD
:100220006E2068656174696E67205B435D0074656C
:100230006D702E2073746162696C697A65207469CF
:100240006D65205B735D005A2D6F66667365742063
:100250005B73746570735D00592D6F6666736574AA
:10026000205B73746570735D00582D6F66667365EF
:1002700074205B73746570735D00504944206D6138
:10028000782076616C7565205B302D3235355D00E8
:1002900050494420442D6761696E0050494420490B
:1002A0002D6761696E0050494420502D6761696E69
:1002B0002F646561642D74696D6500504944206444
:1002C00072697665206D696E0050494420647269D8
:1002D0007665206D61780068656174206D616E617E
:1002E000676572205B302D335D00616363656C650B
:1002F000726174696F6E205B6D6D2F735E325D008D
:100300007374617274206665656472617465205BE4
:100310006D6D2F735D006D61782E2066656564726A
:10032000617465205B6D6D2F735D00737465707310
:1003300020706572206D6D0052657472616374691E
:100340006F6E20756E646F2073706565640045780C
:1003500074726120657874727573696F6E206F6E48
:1003600020756E646F2072657472616374205B6DBA
:100370006D5D0052657472616374696F6E207A2DD1
:100380006C696674205B6D6D5D00526574726163AB
:1003900074696F6E207370656564205B6D6D2F737B
:1003A0005D0052657472616374696F6E206C656E76
:1003B000677468205B6D6D5D00456E61626C6520E1
:1003C00072657472616374696F6E20636F6E7665B7
:1003D0007273696F6E205B302F315D004175746FF1
:1003E0006C6576656C206163746976652028312FB1
:1003F0003029005A2D70726F62652062656E6469E3
:100400006E6720636F7272656374696F6E2043203C
:100410005B6D6D5D005A2D70726F62652062656E56
:1004200064696E6720636F7272656374696F6E20B2
:1004300042205B6D6D5D005A2D70726F62652062A7
:10044000656E64696E6720636F7272656374696F4D
:100450006E2041205B6D6D5D005A2D70726F62657C
:10046000205933205B6D6D5D005A2D70726F62658F
:10047000205833205B6D6D5D005A2D70726F626580
:10048000205932205B6D6D5D005A2D70726F626570
:10049000205832205B6D6D5D005A2D70726F626561
:1004A000205931205B6D6D5D005A2D70726F626551
:1004B000205831205B6D6D5D005A2D70726F626542
:1004C000206F66667365742079205B6D6D5D005AE0
:1004D0002D70726F6265206F666673657420782078
:1004E0005B6D6D5D005A2D70726F626520782D799D
:1004F0002D7370656564205B6D6D2F735D005A2DE3
:1005000070726F6265207370656564205B6D6D2F1E
:10051000735D004D61782E207A2D70726F626520B8
:100520002D2062656420646973742E205B6D6D5D9F
:10053000005A2D70726F6265206865696768742063
:100540005B6D6D5D00436F6174696E6720746869EF
:10055000636B6E657373205B6D6D5D005A2D617802
:1005600069732074726176656C20616363656C6584
:10057000726174696F6E205B6D6D2F735E325D000A
:10058000592D617869732074726176656C2061639E
:1005900063656C65726174696F6E205B6D6D2F733E
:1005A0005E325D00582D61786973207472617665E2
:1005B0006C20616363656C65726174696F6E205B4A
:1005C0006D6D2F735E325D005A2D61786973206105
:1005D0006363656C65726174696F6E205B6D6D2F0E
:1005E000735E325D00592D617869732061636365C4
:1005F0006C65726174696F6E205B6D6D2F735E3216
:100600005D00582D6178697320616363656C657264
:100610006174696F6E205B6D6D2F735E325D005A81
:10062000206D6178206C656E677468205B6D6D5D10
:100630000059206D6178206C656E677468205B6D71
:100640006D5D0058206D6178206C656E6774682060
:100650005B6D6D5D005A206D696E20706F73205B5D
:100660006D6D5D0059206D696E20706F73205B6D3C
:100670006D5D0058206D696E20706F73205B6D6D2D
:100680005D004D61782E205A2D6A65726B205B6D7E
:100690006D2F735D004D61782E206A65726B205B53
:1006A0006D6D2F735D005A2D6178697320686F6DD1
:1006B000696E67206665656472617465205B6D6D47
:1006C0002F735D00592D6178697320686F6D696EB5
:1006D00067206665656472617465205B6D6D2F735C
:1006E0005D00582D6178697320686F6D696E6720B1
:1006F0006665656472617465205B6D6D2F735D0066
:100700005A2D61786973206D61782E206665656465
:1007100072617465205B6D6D2F735D00592D61787A
:100720006973206D61782E206665656472617465F9
:10073000205B6D6D2F735D00582D61786973206D9E
:1007400061782E206665656472617465205B6D6DED
:100750002F735D005A2D617869732073746570730F
:1007600020706572206D6D00592D6178697320735A
:100770007465707320706572206D6D00582D6178FE
:10078000697320737465707320706572206D6D00DD
:1007900053746F7020737465707065722061667435
:1007A000657220696E6163746976697479205B6D26
:1007B000732C303D6F66665D004D61782E20696E4A
:1007C0006163746976652074696D65205B6D732C57
:1007D000303D6F66665D005072696E7465722061AF
:1007E0006374697665205B735D0046696C616D6555
:1007F0006E74207072696E746564205B6D5D00427A
:1008000061756472617465004C616E6775616765DE
:100810000053706565644D756C7469706C793A004D
:10082000504944204175746F74756E652066696E19
:100830006973686564202120506C61636520746869
:1008400065204B702C204B6920616E64204B642026
:10085000636F6E7374616E747320696E2074686563
:1008600020436F6E66696775726174696F6E2E687A
:10087000206F7220454550524F4D00504944204151
:1008800075746F74756E65206661696C656421208E
:1008900074696D656F757400504944204175746FBB
:1008A00074756E65206661696C6564212054656DA0
:1008B000706572617475726520746F6F2068696706
:1008C0006800204B643A2000204B693A2000204BFE
:1008D000703A200020436C6173736963205049446F
:1008E000002054753A2000204B753A2000206D619D
:1008F000783A2000206D696E3A200020643A20008A
:1009000020626961733A2000504944204175746F38
:1009100074756E65207374617274005A20636F720F
:1009200072656374696F6E2064697361626C65647B
:10093000004E6F2063617365206C69676874730093
:100940004D617854656D703A004469616D657465F8
:10095000723A00416363656C65726174696F6E3AE7
:10096000004D617853706565643A004A65726B3A70
:10097000004D617842656454656D703A005072694B
:100980006E746572547970653A4361727465736907
:10099000616E005A54726176656C416363656C3AAE
:1009A000005954726176656C416363656C3A005816
:1009B00054726176656C416363656C3A005A50729B
:1009C000696E74416363656C3A00595072696E7464
:1009D000416363656C3A00585072696E7441636399
:1009E000656C3A005A53697A653A005953697A65D9
:1009F0003A005853697A653A005A4D61783A00597D
:100A00004D61783A00584D61783A005A4D696E3A16
:100A100000594D696E3A00584D696E3A005265743E
:100A200072616374696F6E556E646F53706565644F
:100A30003A0052657472616374696F6E556E646FCB
:100A400045787472614C6F6E674C656E6774683A76
:100A50000052657472616374696F6E556E646F45A0
:100A6000787472614C656E6774683A00526574728E
:100A7000616374696F6E5A4C6966743A00526574AA
:100A800072616374696F6E53706565643A00526594
:100A90007472616374696F6E4C6F6E674C656E67DC
:100AA00074683A0052657472616374696F6E4C6564
:100AB0006E6774683A004A65726B5A3A004B656516
:100AC00070416C697665496E74657276616C3A0046
:100AD0004A65726B58593A005072696E746C696E4F
:100AE0006543616368653A00454550524F4D3A0091
:100AF0004175746F6C6576656C3A005A50726F621E
:100B0000653A00436173654C69676874733A0053D2
:100B10007570706F72744C6F63616C46696C616D57
:100B2000656E746368616E67653A00537570706FC7
:100B300072744731304731313A005A486F6D65441D
:100B400069723A0059486F6D654469723A005848B5
:100B50006F6D654469723A00536F667477617265B0
:100B6000506F7765725377697463683A004C4344F9
:100B70003A0046616E323A300046616E3A005344A4
:100B8000436172643A004865617465644265643A21
:100B9000004D6978696E6745787472756465723A5C
:100BA000004E756D45787472756465723A00496ED1
:100BB0007075744275666665723A0042617564725A
:100BC0006174653A00436F6E666967757261746936
:100BD0006F6E20726573657420746F206465666142
:100BE000756C74732E00696E666F3A436F6E74692C
:100BF0006E75652066726F6D20666174616C20731E
:100C0000746174650054657374696E6720666174FD
:100C1000616C206572726F720029203D20002C00EB
:100C200042656E64696E672061742028004A616DB8
:100C300020636F6E74726F6C2064697361626C659F
:100C4000643A004A616D20646562756767696E6722
:100C50003A002061637475616C205A206F66667378
:100C600065743A20002064656661756C74205A20B2
:100C70006F66667365743A2000436F6E66696775C8
:100C8000726174696F6E206C6F6164656420667256
:100C90006F6D20454550524F4D2E00436F6E666973
:100CA0006775726174696F6E2073746F726564200A
:100CB000746F20454550524F4D2E00536574204DA2
:100CC0006963726F7374657070696E6700436F6CEF
:100CD0006420657874727573696F6E2064697361DE
:100CE0006C6C6F77656400436F6C64206578747218
:100CF0007573696F6E20616C6C6F776564005472F8
:100D00006967676572696E67207761746368646F8D
:100D1000672E204966206163746976617465642C6E
:100D200020746865207072696E7465722077696CD2
:100D30006C2072657365742E005761746368646F0C
:100D4000672064697361626C6564006C696E6561DB
:100D500072204C3A002C2073706565643D00206C55
:100D6000696E6561722073746570733A00417574C1
:100D70006F726574726163743A00205A4A65726BCF
:100D80003A004A65726B3A0020746F200053657414
:100D900020766F6C756D6574726963206578747206
:100DA0007573696F6E20666F7220657874727564F2
:100DB0006572200044697361626C656420766F6CB3
:100DC000756D657472696320657874727573696F87
:100DD0006E20666F7220657874727564657220008B
:100DE000583A30593A305A3A30453A3020436F75C4
:100DF0006E7420583A2030593A305A3A30004D310A
:100E0000313420004649524D574152455F4E414DC5
:100E1000453A52657065746965725F302E39322EBD
:100E200039204649524D574152455F55524C3A6818
:100E3000747470733A2F2F6769746875622E636FCC
:100E40006D2F72657065746965722F526570657477
:100E50006965722D4669726D776172652F205052F7
:100E60004F544F434F4C5F56455253494F4E3A31C2
:100E70002E30204D414348494E455F545950453A24
:100E80004D656E64656C2045585452554445525F1B
:100E9000434F554E543A31205245504554494552DE
:100EA0005F50524F544F434F4C3A3300302E303046
:100EB0000045303A200050696E2063616E206E6FED
:100EC0007420626520736574206279204D34322C61
:100ED00020697320696E2073656E73697469766525
:100EE0002070696E732120002069732000496C6CAA
:100EF0006567616C20532076616C756520666F7242
:100F0000204D34320020746F2000536574206F75BB
:100F1000747075743A200000011617151AFE141328
:100F2000150FFF1211150B0AFFFF0D0C0302150719
:100F3000061F556E6B6E6F776E20636F6D6D616E01
:100F4000643A00496E76616C69642061726300687E
:100F50006F6D65417869732000473332200050720D
:100F6000696E746572206865696768743A005A2012
:100F7000616674657220726F746174696F6E3A0095
:100F80002061745A3A0043757272656E745A3A0061
:100F900050726F62696E6720686164207265747553
:100FA000726E6564206572726F7273202D20617598
:100FB000746F6C6576656C696E672063616E6365DE
:100FC0006C65642E00526573657474696E67205A8F
:100FD00020636F7272656374696F6E00002C20006D
:100FE000446973746F7274696F6E20636F72726597
:100FF0006374696F6E206D61747269783A0053741E
:101000006F7070696E6720646973746F7274696F52
:101010006E206D6561737572656D656E74206475A3
:101020006520746F206572726F72732E0052656C4A
:10103000617469766520706F736974696F6E696E2B
:1010400067004162736F6C75746520706F736974AB
:10105000696F6E696E6700473333206661696C653E
:10106000642100596F75206E65656420746F20647B
:101070006566696E6520582C205920616E64205A7F
:1010800020746F20736574206120706F696E742105
:1010900000473332206C6576656C696E6720666147
:1010A000696C65642100473239206C6576656C692E
:1010B0006E67206661696C65642100004D313137CF
:1010C000204578747275646572203100000021003B
:1010D000240027002A0000002200250028002B0001
:1010E0000000200023002600290002020202020262
:1010F00002020404040404040404030303030303BA
:101100000303010101010101010101020408102092
:1011100040800102040810204080010204081020D1
:1011200040808040201008040201000000010200FD
:101130000000000000000403080700000000000099
:1011400000000000000000000000536F667477612B
:101150007265205265736574005761746368646FCB
:10116000672052657365740042726F776E206F75E9
:10117000742052657365740045787465726E616C95
:1011800020526573657400506F7765725570000763
:101190007A446973746F7274696F6E436F727265AB
:1011A0006374696F6E3A00467265652052414D3A2C
:1011B000002045787465726E616C205265736574A9
:1011C00000362E362E36004D61726C696E20006539
:1011D00063686F3A007374617274004563686F3AB4
:1011E000004D333430205030205332353030007AC7
:1011F0002D70726F626520646964206E6F74207553
:101200006E747269676765722061667465722067C3
:101210006F696E67206261636B20746F2073746105
:10122000727420706F736974696F6E2E00207A4338
:101230006F72723A0020593A0020583A005A2D70C5
:10124000726F62653A007A2D70726F626520646910
:1012500064206E6F7420756E7472696767657220A2
:101260006F6E2072657065746974697665206D654E
:1012700061737572656D656E74202D206D61796284
:101280006520796F75206E65656420746F20696EC6
:101290006372656173652064697374616E6365214F
:1012A000005A2D70726F6265206661696C6564001A
:1012B0007A2D70726F6265207472696767657265F6
:1012C00064206265666F7265207374617274696E02
:1012D000672070726F62696E672E000400501D7C7B
:1012E00000D009A4001009CC008008F40010081CEC
:1012F00001B807440168076C0128079401E806BC9F
:1013000001B806E40188060C026006340238065C67
:101310000218068402F005AC02D805D402B805FC18
:101320000298052403800574035005C4032805149E
:101330000400056404D804B404B0042C058004A49B
:101340000558041C062804940600040C07D803ACB6
:1013500007A8034C087803EC0848038C092003A471
:101360000AD0021C0BA802AC0C2802FC0C0802C418
:101370000DB801140E9801B40E38012C0FE0005482
:101380000FB8007C0F8800A40F4800F40F28FFFC62
:101390000FC0F9000000008C030800AE035000D617
:1013A00003A000F703F0001804400138049001592D
:1013B00004E0017A0430029A048002BB04D002FCEB
:1013C0000470032605C003860630079709A00F7531
:1013D0000D201C520E401F1F0F6022FF0F803E0485
:1013E00000081D900058091C01B007A801C8063468
:1013F000023006C002C0054C036805D80318056416
:1014000004D004F00498047C0560040806300494B9
:101410000600042007D003AC07A80338088003C4E3
:1014200008580350093003DC090803680AD802F49D
:101430000AB002800B88020C0C6002980C30022467
:101440000DF801B00DC0013C0E8001C80E300154F2
:101450000FB800B40F2800E00F00000400401D90FA
:101460000060091C01B007A801D00634023806C08C
:1014700002C8054C036805D80318056404D804F0B5
:101480000498047C056004080630049406000420D7
:1014900007D003AC07A80338088003C408580350DA
:1014A000093003DC090803680AE002F40AB8028084
:1014B0000B88020C0C6002980C3002240DF801B06D
:1014C0000DC0013C0E8001C80E3001540FB800B4AD
:1014D0000F2800E00F000004000016D800C006AC82
:1014E0000178058002C004540348042804E803FC82
:1014F000049803D0055003A40618037807D8024CBB
:1015000008A80220097002F4093802C80A08029CDF
:101510000BD001700C9001440D5001180EF800EC36
:101520000E8800C00F00000400681D4C00500B9492
:10153000005809DC0050082401A8076C012807B4F2
:1015400001C006FC017006440228068C02F005D496
:1015500002B8051C03880564035805AC033005F484
:101560000310053C04E8048404C804CC04A8041453
:101570000590045C057004A4055804EC0538043497
:101580000620047C060804C406F0030C07D80354A4
:1015900007C8039C07B003E40798032C0880037472
:1015A000087003BC085803040948034C093003942D
:1015B000091803DC090803240AF0026C0AE002B4EB
:1015C0000AC802FC0AB002440BA0028C0B8802D4A9
:1015D0000B70021C0C5802640C4002AC0C2802F484
:1015E0000C10023C0DF001840DD801CC0DB8011493
:1015F0000E98015C0E7001A40E4801EC0E18013427
:101600000FD8007C0F8800C40F0800FC0F000000FA
:1016100000000000000000000000000000000000CA
:1016200000000000000000000000000000000000BA
:101630000000000000401F450060094F0010095CD9
:1016400000C0086B0070087D0020089200D007AC35
:10165000008007CC003007DE00E006230190065E24
:10166000014006A601F005FF01A0056D025005F33B
:101670000200059603B0045A0460044005100448B3
:1016800006C0036E077003A8082003EB09D00223ED
:101690000B8002410C3002390DE001040E9001A2D2
:1016A0000E4001170FF000690FA000A20F5000C6F6
:1016B0000F0000DD0FB0FFEB0F60FF0400001B54B4
:1016C000006009640010097400C008840070089C60
:1016D000002008B800D007D8008007000130072C90
:1016E00001E00668019006AC0140060002F00568C2
:1016F00002A005E0025005740300052404B004F0C4
:10170000046004DC051004E406C003040870033020
:10171000092003780B8002600DE001A80E400168EB
:101720000FA000C00F0000E80F60FF0400700DD88C
:10173000004804AC0158038002D8025403800228F8
:10174000043802FC040002D005C801A40698017800
:101750000770014C08480120091801F409F000C87D
:101760000AC8009C0BA000700C7000440D380018D3
:101770000E0000EC0EA8FFC00FE8FE0400001B5492
:10178000006009640010097400C008840070089C9F
:10179000002008B800D007D8008007000130072CCF
:1017A00001E00668019006AC0140060002F0056801
:1017B00002A005E0025005740300052404B004F003
:1017C000046004DC051004E406C003040870033060
:1017D000092003780B8002600DE001A80E4001682B
:1017E0000FA000C00F0000E80F60FF0400801AD8AF
:1017F000009808AC012007800250065403C8052851
:10180000045805FC040005D005B004A4066804785B
:101810000728044C08E8032009B003F4097003C842
:101820000A38039C0BF802700CB002440D680218D1
:101830000E0802EC0E8801C00F8800F00F000000B7
:1018400000A00F5C006009690010097900C0088CD5
:10185000007008A2002008BD00D007DE0080070548
:101860000130073401E0066D019006B20140060721
:1018700002F0056D02A005E80250057B0300052B70
:1018800004B004F8046004EB06C003350920037FAC
:101890000B8002650DE001B00E40011D0FF0004805
:1018A0000FC8006C0FA000ED0F60FFFE0F48FE3F59
:1018B00018EB177B172B17BB1600000000331627F9
:1018C00015D7145B14DF139313DB121C151C141CA7
:1018D00000002243141F1F132E5072696E7465722C
:1018E0002073657420696E746F206472792072753C
:1018F0006E206D6F646520756E74696C20726573FF
:10190000746172742100206D61726B65642064657E
:10191000636F75706C656400206D61726B65642027
:10192000646566656374003A20776F726B696E67F1
:10193000003A2074656D702073656E736F72206459
:101940006566656374004F746865723A0000004212
:101950000FA1071605D0030D038B022E02E801B27A
:10196000018601630145012C0117010401F4000007
:101970000000000000000000000000000000002443
:10198000F403D950C38EB1C2A23D96828B35821228
:101990007AE372816CCB66A861015DC758EB546134
:1019A00051204E1E4B5648C14559431A41013F092B
:1019B0003D2F3B7139CD374036C93465331432D4AD
:1019C00030A32F802E6B2D632C672B752A8E29B0A8
:1019D00028DC2710274B268F25D9242B248223E0AF
:1019E000224322AC211A218D200420801F001F8455
:1019F0001E0C1E971D261DB81C4E1CE61B821B20AC
:101A00001BC11A641A0A1AB2195D190A19B9186A9F
:101A1000181C18D11788174017FA16B51673163107
:101A200016F115B31576153A150015C7148F14580D
:101A3000142214EE13BA13881356132513F612C783
:101A40001299126C1240121512EB11C111981170FB
:101A50001148112111FB10D610B1108D10691046DC
:101A60001024100210E10FC00FA00F800F610F4271
:101A70000F230F060FE80ECB0EAF0E930E770E5C02
:101A80000E410E270E0D0EF30DDA0DC10DA80D90AF
:101A90000D780D600D490D320D1B0D050DEF0CD9A4
:101AA0000CC30CAE0C990C850C700C5C0C480C35FE
:101AB0000C210C0E0CFB0BE80BD60BC40BB20BA0CD
:101AC0000B8E0B7D0B6B0B5A0B4A0B390B290B182A
:101AD0000B080BF80AE90AD90ACA0ABB0AAC0A9D24
:101AE0000A8E0A800A710A630A550A470A390A2CC3
:101AF0000A1E0A110A040AF709EA09DD09D009C415
:101B000009B709AB099F09920987097B096F096326
:101B10000958094C09410936092B09200915090AF8
:101B2000090009F508EB08E008D608CC08C208B897
:101B300008AE08A4089A08900887087D0874086B06
:101B400008610858084F0846083D0834082C082347
:101B5000081A08120809080108F807F007E807E062
:101B600007D807D007C807C007B807B007A807A15C
:101B700007627573793A70726F63657373696E6724
:101B800000627573793A68656174696E67006275A1
:101B900073793A70617573656420666F722075732E
:101BA000657220696E746572616374696F6E00524C
:101BB0006573656E643A20006F6B204E0020676F7E
:101BC0007420004572726F723A657870656374654F
:101BD00064206C696E652000736B697020006F6B08
:101BE000007761697400466F726D6174206572726E
:101BF0006F720057726F6E6720636865636B7375F1
:101C00006D00200050726F746F636F6C2076657288
:101C100073696F6E206368616E6765642C207570F0
:101C200067726164696E67005472616E73666F7289
:101C30006D6174696F6E206D61747269783A0045E8
:101C40007874722E004550523A3320004550523A73
:101C50003220004550523A3120004550523A30204F
:101C60000053656C65637445787472756465723A87
:101C7000003A00546172676574457874720020639D
:101C8000203D20002062203D2000706C616E653A8E
:101C90002061203D20004175746F6C6576656C692C
:101CA0006E672064697361626C6564004175746F6E
:101CB0006C6576656C696E6720656E61626C6564E3
:101CC000004D3334302050302053363130205231E3
:101CD000303030004175746F6C6576656C206D61D5
:101CE0007472697820726573657400446973616207
:101CF0006C696E6720616C6C2068656174657273D5
:101D00002064756520746F20646574656374656410
:101D10002073656E736F72206465666563742E0050
:101D2000206465672E204300206D656173757265C0
:101D30006420004572726F723A436F756C64206E56
:101D40006F7420686F6C642074656D706572617467
:101D50007572652000206D730020616674657220C5
:101D6000004572726F723A54656D702E207261690F
:101D700073656420746F20736C6F772E20526973C3
:101D800065203D20004F6E65206865617465722096
:101D90007365656D73206465636F75706C65642031
:101DA00066726F6D20746865726D6973746F7220EE
:101DB0002D2064697361626C696E6720616C6C20B0
:101DC000666F7220736166657479210020453A0060
:101DD000205A3A00583A00205241570020403A0019
:101DE000202F00543A00466C6F774D756C74697003
:101DF0006C793A00206D696E0020686F75727320EF
:101E000000206461797320005072696E74696E6796
:101E10002074696D653A006D20005072696E7465BA
:101E2000642066696C616D656E743A005A2D70723B
:101E30006F62652073746174653A007A5F6D6178D2
:101E40003A007A5F6D696E3A004C200048200079B4
:101E50005F6D696E3A00785F6D696E3A00656E6419
:101E600073746F7073206869743A200044656275FA
:101E7000674C6576656C3A005072696E7465724D98
:101E80006F64653A434E43005072696E7465724DDB
:101E90006F64653A4C61736572005072696E746567
:101EA000724D6F64653A46464600205A002059003C
:101EB00047333320580046616E73706565643A009D
:101EC0005A20636F7272656374696F6E20656E610C
:101ED000626C656400436F6E6669673A0020520069
:101EE000204A0020490020500020530020460020B6
:101EF0004500205A00205900205800205072696E79
:101F00007465722073746F7070656420616E6420F4
:101F1000686561746572732064697361626C65647D
:101F20002064756520746F2074686973206572720F
:101F30006F722E20466978206572726F7220616E12
:101F40006420726573746172742077697468204DBF
:101F50003939392E00666174616C3A00496E666FDA
:101F60003A004572726F723A00494E46004E414E39
:101F7000004E414E494E495459494E46CDCCCC3D78
:101F80000AD7233C17B7D13877CC2B329595E62466
:101F90001FB14F0A000020410000C84200401C460B
:101FA00020BCBE4CCA1B0E5AAEC59D74BB981124F2
:101FB0001FBECFEFD0E4DEBFCDBF12E0A0E0B1E0A6
:101FC000E0E3F5E401E00BBF02C007900D92A035FD
:101FD000B107D9F72DE0A0E5B2E001C01D92A6300F
:101FE000B207E1F71FE0C7EDDFE004C02197FE0173
:101FF0000E946599C63DD107C9F70E9434950C949B
:1020000096A20C9400002F923F924F925F926F9293
:102010007F928F929F92AF92BF92CF92DF92EF9278
:10202000FF920F931F93CF93DF93CDB7DEB7E09767
:102030000FB6F894DEBF0FBECDBF8C012091FF011B
:10204000DC010D90BC91A02DB8ABAFA724FF0FC051
:10205000A2FF02C00C949223BFA5B1FF08C0FC01EF
:10206000868197818F36910511F00C949223FFA5FC
:10207000F2FF1BC0C801E0960FB6F894DEBF0FBE9A
:10208000CDBFDF91CF911F910F91FF90EF90DF9027
:10209000CF90BF90AF909F908F907F906F905F9008
:1020A0004F903F902F900C94ED263FA531FD02C03C
:1020B0000C946E23D80116968D919C9117978C3DA8
:1020C000910511F40C94A11B08F0C6C08F36910540
:1020D00009F4CCC608F04DC08435910509F4EAC472
:1020E00028F582359105A0F48035910510F00C9407
:1020F000D4268330910510F40C944D23863091053D
:1021000010F40C94D4268A9709F4CEC30C944D2372
:102110008235910509F4CAC48335910511F00C94F8
:102120004D2381E0809310040C94D42688369105C9
:1021300009F4AEC570F48C35910509F414C58336E5
:10214000910509F459C58535910511F00C944D237D
:10215000E7C48A36910509F45DC608F4E8C58B36F4
:10216000910509F470C68D36910509F402C60C94E8
:102170004D23883C910509F4D1C608F04EC085373F
:10218000910511F40C94D42698F48337910509F441
:102190009CC610F00C948F228237910511F00C949C
:1021A0004D238EEF9DE00E94AD5D80EE9DE09CC6CC
:1021B0008B37910509F4ADC528F58737910511F0E6
:1021C0000C944D230E9415630E9417820E9417826F
:1021D000E0960FB6F894DEBF0FBECDBFDF91CF9172
:1021E0001F910F91FF90EF90DF90CF90BF90AF9035
:1021F0009F908F907F906F905F904F903F902F9027
:102200000C94C6818C38910509F48AC58E3B9105E2
:1022100011F40C9492230C944D238C3C910509F4F9
:1022200086C738F48A3C910509F426C708F4CAC663
:1022300064C78E3C910511F40C94EA1A08F4D3C7D4
:102240008F3C910511F40C94331B813D910511F4E1
:102250000C94831B0C944D238039B1E09B0711F43F
:102260000C94661F08F0B1C28F32F1E09F0711F4A1
:102270000C94E91C48F5883E910511F40C943D1C22
:1022800088F48F3D910511F40C94231C823E910536
:1022900011F40C94181C8D3D910511F00C944D23F4
:1022A0000C94F01B893141E0940709F416C68E3274
:1022B00051E0950711F40C94C91C893E910511F069
:1022C0000C944D230C94601C8334A1E09A0711F404
:1022D0000C94E01E98F48134E1E09E0711F40C9414
:1022E000941E10F00C94CA1E8034914011F00C948E
:1022F0004D2381E00E9476650C94CD1E8E3541E021
:10230000940711F40C945C1F38F48435914011F457
:102310000C94491F0C944D238336B1E09B0711F4B4
:102320000C945F1F8836914011F00C944D23C0909F
:102330009D01D0909E01E0909F01F090A00185ED5D
:102340009EE10E94BD938BEB9BE00E94BD93C70171
:10235000B6010E94A2930E940A5F6FE770E08EEAC6
:102360009BE00E941B9561E070E081EA9BE00E9487
:102370001B9560E070E081E99BE00E941B9560E0A6
:1023800070E086E89BE00E941B9560E070E08EE7BD
:102390009BE00E941B9561E070E089E79BE00E9452
:1023A0001B9585ED9EE10E94BD9382E79BE00E9414
:1023B000FF9460E070E08DE69BE00E941B9560E07A
:1023C00070E088E59BE00E941B956FEF7FEF8EE445
:1023D0009BE00E941B956FEF7FEF84E49BE00E94DF
:1023E0001B956FEF7FEF8AE39BE00E941B9561E0F6
:1023F00070E08BE29BE00E941B9561E070E08FE053
:102400009BE00E941B9560E070E083E09BE00E94EF
:102410001B9561E070E08BEF9AE00E941B9561E0F4
:1024200070E080EF9AE00E941B9561E070E088EE1A
:102430009AE00E941B9560E170E088ED9AE00E94AE
:102440001B9540917E0250917F02609180027091B5
:10245000810280ED9AE00E94CB8960ED77E08DEB00
:102460009AE00E941B9540917A0250917B02609104
:102470007C0270917D0286EB9AE00E94CB8980EE0F
:1024800093E00E948368AB01BC0184EA9AE00E9459
:10249000CB8984EE93E00E948368AB01BC018EE897
:1024A0009AE00E94CB8988EE93E00E948368AB019A
:1024B000BC018DE79AE00E94CB898CEE93E00E94EC
:1024C0008368AB01BC018CE69AE00E94CB8980EF67
:1024D00093E00E948368AB01BC0181E59AE00E9411
:1024E000CB8984EF93E00E948368AB01BC0182E357
:1024F0009AE00E94CB8988EF93E00E948368AB0149
:10250000BC018DE19AE00E94CB894091620250911A
:102510006302609164027091650287E19AE00E9413
:10252000CB8940915E0250915F0260916002709190
:10253000610281E19AE00E94CB8940915A02509158
:102540005B0260915C0270915D028BE09AE00E94F8
:10255000CB8920916E0230916F02409170025091B0
:1025600071026091620270916302809164029091A5
:1025700065020E947E99AB01BC0185E09AE00E9451
:10258000CB8920916A0230916B0240916C0250918C
:102590006D0260915E0270915F0280916002909185
:1025A00061020E947E99AB01BC018FEF99E00E940D
:1025B000CB89209166023091670240916802509168
:1025C000690260915A0270915B0280915C02909165
:1025D0005D020E947E99AB01BC0189EF99E00E94E7
:1025E000CB8940916E0250916F02609170027091A0
:1025F000710282EF99E00E94CB8940916A0250916A
:102600006B0260916C0270916D028BEE99E00E94FA
:10261000CB89409166025091670260916802709187
:10262000690284EE99E00E94CB894091CF015091DC
:10263000D0016091D1017091D20187ED99E00E94A3
:10264000CB894091D3015091D4016091D501709113
:10265000D6018AEC99E00E94CB894091D701509134
:10266000D8016091D9017091DA018DEB99E00E9457
:10267000CB894091BF015091C0016091C10170911F
:10268000C2018FEA99E00E94CB894091C301509129
:10269000C4016091C5017091C60181EA99E00E9470
:1026A000CB894091C7015091C8016091C9017091D7
:1026B000CA0183E999E00E94CB8985ED9EE10E94E1
:1026C000BD938DE799E00E94FF9463E770E081E796
:1026D00099E00E941B9585ED9EE10E94BD9361E00B
:1026E00070E08FE39CE10E94F2948AE30E94055F10
:1026F00040912F0150913001609131017091320170
:1027000022E08BE699E00E94909485ED9EE10E9484
:10271000BD9361E070E08FE39CE10E94F2948AE354
:102720000E94055F40912701509128016091290185
:1027300070912A0122E081E699E00E94909485ED53
:102740009EE10E94BD9361E070E08FE39CE10E94F6
:10275000F2948AE30E94055F40912B0150912C0175
:1027600060912D0170912E0122E083E599E00E9495
:10277000909485ED9EE10E94BD9361E070E08FE34F
:102780009CE10E94F2948AE30E94055F40919401CB
:1027900050919501609196017091970122E089E432
:1027A00099E00E94909485ED9EE10E94BD9361E0C6
:1027B00070E08FE39CE10E94F2948AE30E94055F3F
:1027C00064E071E080E499E03BC1863FF1E09F075F
:1027D00011F40C945120C8F5833C41E0940711F4A6
:1027E0000C942F2080F48239A1E09A0711F40C9404
:1027F000E21F10F40C94801F823C914011F40C9461
:1028000031200C944D23853CF1E09F0711F40C948A
:10281000312010F40C943120843F41E0940711F4EE
:102820000C944B20853F914011F00C944D2381E096
:102830000E946158E0918A04F0918B0480810E948B
:10284000725189E79CE00C940F228B35A2E09A0725
:1028500011F40C94E82280F48935E2E09E0711F42B
:102860000C94632210F00C94AB228533924011F447
:102870000C9429220C944D238F3843E0940768F47C
:102880008B3853E0950710F00C94D4268A37934088
:1028900011F40C94EC220C944D23873E934011F4D8
:1028A0000C9420230C944D23EFA5F8A9F3FD02C04E
:1028B0000C94D426D8019296DC909297ED2C9396A6
:1028C000FC90E7E1FFE02BE12E0F849190E08E1564
:1028D0009F0509F4CFC031962E13F7CFF7FCCAC07D
:1028E000EFA5F8A9F2FF9DC0F801868D978DA0A1F4
:1028F000B1A18F3F9105A105B10511F008F08EC07F
:1029000061E08D2D0E94E53DD8015E966C918D2D84
:102910000E94B53DF801C68CB78C8C2C9B2C61E0D5
:102920008D2D0E94E53D8114910409F464C0FFEFF0
:102930008F16910409F461C0F701FF27E65DFE4E92
:10294000E4914E2F50E0FA013197EA30F10508F09A
:102950004EC0EA5BFF4F0C94659984B5806884BDD6
:10296000C7BC4FC084B5806284BDC8BC4AC08091DA
:1029700080008068809380008C2D9B2D909389002F
:10298000809388003EC080918000806280938000A8
:102990008C2D9B2D90938B0080938A0032C0809168
:1029A000B00080688093B000C092B3002AC08091CC
:1029B000B00080628093B000C092B40022C08091C9
:1029C00090008068809390008C2D9B2D90939900AF
:1029D0008093980016C08091900080628093900050
:1029E0008C2D9B2D90939B0080939A000AC020E829
:1029F0008216910414F460E001C061E08D2D0E9404
:102A0000B53DB7018AE09FE00E94F294D8015E963E
:102A10006D917C915F9785E09FE012C08DEE9EE006
:102A20002BC062E08D2D0E94E53DB70185E09FE05F
:102A30000E94F2948D2D0E948C3DBC0188EE9EE098
:102A4000E0960FB6F894DEBF0FBECDBFDF91CF91F9
:102A50001F910F91FF90EF90DF90CF90BF90AF90BC
:102A60009F908F907F906F905F904F903F902F90AE
:102A70000C94C99486EB9EE0E0960FB6F894DEBF06
:102A80000FBECDBFDF91CF911F910F91FF90EF90BF
:102A9000DF90CF90BF90AF909F908F907F906F907E
:102AA0005F904F903F902F900C94039510921004DC
:102AB0000C94D426EFA5F8A9F2FF15C0D8015E96B4
:102AC0002D913D914D915C919197A8EEB3E00E94BC
:102AD0007CA26093B5017093B6018093B701909387
:102AE000B8010C94D4260E94156381E0E0960FB6DD
:102AF000F894DEBF0FBECDBFDF91CF911F910F9134
:102B0000FF90EF90DF90CF90BF90AF909F908F900D
:102B10007F906F905F904F903F902F900C94917F9B
:102B2000EFA5F8A9F2FF15C0D8015E962D913D9151
:102B30004D915C919197A8EEB3E00E947CA26093C6
:102B400023037093240380932503909326030C940E
:102B5000D42610922303109224031092250310927E
:102B600026030C94D426BFA5B3FF0DC0F8018285BF
:102B70009385A485B5858093EF019093F001A09390
:102B8000F101B093F201FFA5F4FF0DC0F8018685B5
:102B90009785A089B1898093F3019093F401A09364
:102BA000F501B093F601FFA5F5FF0DC0F80182898C
:102BB0009389A489B5898093F7019093F801A09334
:102BC000F901B093FA010E94BD7FD8018C9186FD76
:102BD00002C00C94D42620918A0430918B0456961E
:102BE0008D919D910D90BC91A02DF90185879687BF
:102BF000A787B08B0C9477232FA538A932FF0EC07E
:102C0000D8015E962D913D914D915C919197A8EEE2
:102C1000B3E00E947CA26B017C0106C050E1C52E8E
:102C200057E2D52EE12CF12CBFA5B3FD459AF80152
:102C3000808184FD459AD8018C9185FD459A0E943A
:102C4000463EC60ED71EE81EF91E0E94463EA7014C
:102C50009601261B370B480B590BDA01C901803A44
:102C60009648A140B10518F40E945850EECFD80103
:102C70008C9183FD4598F801808184FD4598D801A9
:102C80008C9185FD02C00C94D42645980C94D426D2
:102C90000E94D946D82E81110C94D4260E94463E1B
:102CA000609361047093620480936304909364045E
:102CB0008091FF0183FF02C00C94D426F80180812B
:102CC000918193FF02C00C949D2392FF0AC0868DD0
:102CD000978DA0A1B1A1892B8A2B8B2B11F40C9479
:102CE0009D23D8018D919C9192FD02C00C94D42615
:102CF0009C012227317091FD02C00C94A123F801A0
:102D0000EC5AFF4F8081882311F40C94C5230C9456
:102D1000A12381EB9EE00E94BD938CEA9EE0E4C07B
:102D20000E94D94681110C94D4260C9492238FA52D
:102D300098A943E0969587954A95E1F78170E096CA
:102D40000FB6F894DEBF0FBECDBFDF91CF911F91BC
:102D50000F91FF90EF90DF90CF90BF90AF909F903A
:102D60008F907F906F905F904F903F902F900C943A
:102D7000105F0E94D946D82E81110C94D4260E944F
:102D8000463E609361047093620480936304909361
:102D900064048091FF0183FF02C00C94D4260E943A
:102DA0001563E0908A04F0908B04D8018D919C917A
:102DB00091FF0AC0F801EC5AFF4F2081211104C095
:102DC00034E1E32E31E0F32E92FD02C00C94922305
:102DD00090FF0FC0DD24D39420E030E0A901F8017A
:102DE000628D738D848D958D0E94C79B18160CF093
:102DF000D12CD8015E966D917D918D919C9191978A
:102E00000E94E1A001E02D2DF70140810E94EE54C7
:102E10000C9492238091E50283FF02C00C94D42687
:102E20002FA538A933FD02C00C94E423F80182A138
:102E300093A1A4A1B5A10197A105B10511F00C942E
:102E4000E4230C94D426EFA5F8A9F3FD02C00C945A
:102E5000F123F80182A193A1A4A1B5A10197A10535
:102E6000B10511F00C94F1230C94D4262FA538A9A8
:102E700032FF05C0D8015E968C910E94AC81F801AA
:102E80008081918193FF11C082A193A1A4A1B5A1DA
:102E90002091FF01181619061A061B0614F4822B3E
:102EA00002C0815082230E94AC818091FF0183FD8A
:102EB00002C00C94D42600E020E040E060E070E026
:102EC000CB010E94EE540C94D42684E09EE00E9434
:102ED000FF940E949B680C943120BFA5B3FF29C5C5
:102EE0000E94F95E89E39DE0E0960FB6F894DEBF9C
:102EF0000FBECDBFDF91CF911F910F91FF90EF904B
:102F0000DF90CF90BF90AF909F908F907F906F9009
:102F10005F904F903F902F900C94FF94E0918A0423
:102F2000F0918B048081282F4FA558A951FF07C02D
:102F3000F801EC5AFF4F9081911101C080E0D80157
:102F400012969C91129792FF07C09E96CD90DD90AD
:102F5000ED90FC90D19703C0C12CD12C760193FF4A
:102F600005C0F801C2A8D3A8E4A8F5A8082F10E06E
:102F700035E8839FF0011124EC56FE4FC082D182C8
:102F8000E282F382821306C080918A0290918B02C2
:102F90000E94355D20E030E0A901C701B6010E9422
:102FA000DAA0B801811103C084EB9DE049CD8DE822
:102FB0009DE00E94F29422E0B701A60188E89DE01E
:102FC0000C94BA264FA543FF0DC0F8018285938566
:102FD000A485B5858093CF019093D001A093D101B2
:102FE000B093D201FFA5F4FF0DC0F8018685978547
:102FF000A089B1898093D3019093D401A093D50186
:10300000B093D601FFA5F5FF0DC0F8018289938921
:10301000A489B5898093D7019093D801A093D90151
:10302000B093DA01FFA5F6FF0DC0F80186899789F4
:10303000A08DB18D8093DB019093DC01A093DD0125
:10304000B093DE01E0960FB6F894DEBF0FBECDBFA1
:10305000DF91CF911F910F91FF90EF90DF90CF9074
:10306000BF90AF909F908F907F906F905F904F90A8
:103070003F902F900C94BD7FFFA5F3FF0DC0F8018A
:1030800082859385A485B5858093BF019093C00107
:10309000A093C101B093C201FFA5F4FF0DC0F801D8
:1030A00086859785A089B1898093C3019093C401D7
:1030B000A093C501B093C601FFA5F5FF0DC0F801AF
:1030C00082899389A489B5898093C7019093C801A7
:1030D000A093C901B093CA01FFA5F6FFB3CFF801D1
:1030E00086899789A08DB18D8093CB019093CC0177
:1030F000A093CD01B093CE01A5CF2FA538A932FF63
:1031000012C081E0D8015E964D915D916D917C91E8
:1031100091974F3F51056105710509F480E0809357
:1031200051020C94D426109251020C94D426E091B2
:103130008A04F0918B042FA538A932FD02C0BF96F6
:103140000DC0F801868D978DA0A1B1A1892B8A2B86
:103150008B2B11F00C94D426E3E4F1E02FA523FF90
:103160000BC0D8011A964D915D916D917C911D9780
:10317000408F518F628F738FBFA5B4FF0BC0D801F2
:103180001E964D915D916D917C915197448F558F15
:10319000668F778FBFA5B5FF0BC0D80152964D91B2
:1031A0005D916D917C91559740A351A362A373A348
:1031B000CF01E0960FB6F894DEBF0FBECDBFDF9112
:1031C000CF911F910F91FF90EF90DF90CF90BF9024
:1031D000AF909F908F907F906F905F904F903F90B7
:1031E0002F900C942B5168E078E084E094E00E94EA
:1031F00045546FEF77E08BE490E00E948D5443E0FC
:103200006AEE77E081E890E00E94AD5467ED77E0E8
:103210008DE790E00E948D5469EB77E08FE490E0B9
:103220000E948D5460E977E083E590E00E948D5420
:1032300044E06CE777E083E090E00E94AD5444E026
:1032400068E677E087E090E00E94AD5444E064E5F2
:1032500077E08BE090E00E94AD5443E068E377E0D4
:103260008FE090E00E94AD5443E06CE177E083E1B1
:1032700090E00E94AD5443E060E077E087E190E0A9
:103280000E94AD5443E062EE76E08BE190E00E9454
:10329000AD5443E064EC76E08FE190E00E94AD54E1
:1032A00043E066EA76E083E290E00E94AD5443E0BA
:1032B00065E976E087E290E00E94AD5443E062E881
:1032C00076E08FE290E00E94AD5443E063E776E061
:1032D00085E890E00E94AD5443E064E676E089E83A
:1032E00090E00E94AD5443E065E576E08DE890E023
:1032F0000E94AD5443E063E476E081E990E00E94EF
:10330000AD5443E061E376E085E990E00E94AD547E
:1033100043E06FE176E089E990E00E94AD5443E03C
:1033200062E076E083E390E00E94AD5443E065EE16
:1033300075E087E390E00E94AD5443E068EC75E0EF
:103340008BE390E00E94AD5443E064EA75E08FE3C4
:1033500090E00E94AD5443E060E875E083E490E0C3
:103360000E94AD5443E06CE575E087E490E00E9474
:10337000AD5443E065E475E080E094E00E94AD5414
:1033800043E061E375E088E293E00E94AD5443E0DE
:1033900063E175E081EA93E00E94AD5443E06EEF93
:1033A00074E08CE293E00E94AD5443E065EE74E07B
:1033B00088E493E00E94AD5443E06FEC74E080E257
:1033C00093E00E94AD5443E069EB74E084E293E043
:1033D0000E94AD5443E069EA74E080E393E00E9408
:1033E000AD5443E069E974E084E393E00E94AD5496
:1033F00043E069E874E088E393E00E94AD5443E061
:1034000069E774E08CE393E00E94AD5443E069E621
:1034100074E080E493E00E94AD5443E069E574E019
:1034200084E493E00E94AD5443E067E374E08CE0F1
:1034300094E00E94AD5443E065E174E080E194E0E3
:103440000E94AD5443E063EF73E084E194E00E9496
:10345000AD546CED73E080E793E00E94455469EB56
:1034600073E08CEF93E00E94455443E062EA73E01E
:1034700080EE93E00E94AD5443E06AE873E088EE8A
:1034800093E00E94AD5443E063E773E08CEE93E079
:103490000E94AD5443E06EE473E080EF93E00E943D
:1034A000AD5443E068E373E088EF93E00E94AD54CD
:1034B00043E06BE273E088EC90E00E94AD5443E09F
:1034C00066E173E08CEC90E00E94AD5443E060E074
:1034D00073E080ED90E00E94AD5443E06AEE72E04C
:1034E00084ED90E00E94AD5467ED72E088ED90E0CD
:1034F0000E94455469EC72E089ED90E00E944554C9
:103500006BEB72E085EF90E00E94455444E066EA80
:1035100072E08AED90E00E94AD5444E06BE972E005
:103520008EED90E00E94AD5444E060E972E082EEDE
:1035300090E00E94AD546AE772E086EE90E00E944F
:10354000455469E672E087EE90E00E948D5468E58C
:1035500072E08BEE90E00E948D5467E472E082E2AC
:1035600091E00E948D546EE272E08FEE90E00E9436
:10357000695468E072E08AEF90E00E94695462EE5C
:1035800071E08CEF90E00E94695464EC71E08EEF82
:1035900090E00E94455443E062EB71E086EF90E0DA
:1035A000E0960FB6F894DEBF0FBECDBFDF91CF918E
:1035B0001F910F91FF90EF90DF90CF90BF90AF9051
:1035C0009F908F907F906F905F904F903F902F9043
:1035D0000C94AD548FA598A988279A7081159A40AC
:1035E000C9F4F801EC5AFF4F8081813011F40C943A
:1035F0000D2410F00C942024EFA5F8A9F2FF0AC0C6
:10360000D8015E966C915E9792968D919C9193975E
:103610000E942FA20E94D754682F88E690E06EA7E0
:103620000E9411A26EA5681721F088E690E00E9422
:103630002FA2D80192964D915D916D917C919597B5
:10364000485C51096109710981E0483552406105C2
:10365000710508F080E00E946158E0918A04F091C1
:103660008B040C947723EFA5E3FF0DC0F80182854E
:103670009385A485B58580937E0290937F02A09365
:103680008002B0938102FFA5F6FF11C020918A0449
:1036900030918B04F80186899789A08DB18DF9014D
:1036A000838F948FA58FB68F80810E947251D8012D
:1036B0008C9185FF0EC052968D919D910D90BC917D
:1036C000A02D80937A0290937B02A0937C02B0930A
:1036D0007D0240917E0250917F0260918002709144
:1036E000810222E082E89DE00E94759440917A0276
:1036F00050917B0260917C0270917D0222E08AE70A
:103700009DE00C94BA26EFA5F8A9F2FD02C00C9436
:10371000D42661E0D8015E960D911D912D913C91CA
:1037200091978091E502012B022B032B19F460E0A5
:103730008D7F01C082608093E50270E08DE69DE0A0
:103740007FC9EFA5F8A9F2FF06C0F801868D978D15
:10375000A0A1B1A104C084E690E0A0E0B0E08C019B
:103760008931910534F0853F91402CF004EF11E050
:1037700002C009E110E0B801012E000C880B990B82
:103780000E94E1A06B017C0180918C0290918D02DE
:10379000BC01990F880B990B0E94E1A09B01AC0121
:1037A000C701B6010E94619A9B01AC01609185043A
:1037B0007091860480918704909188040E9440A1B2
:1037C00060938504709386048093870490938804A3
:1037D00010938D0200938C02B80181E198E030C90A
:1037E0002FA538A932FF06C0F801868D978DA0A1BC
:1037F000B1A104C084E690E0A0E0B0E0E0960FB68E
:10380000F894DEBF0FBECDBFDF91CF911F910F9116
:10381000FF90EF90DF90CF90BF90AF909F908F90F0
:103820007F906F905F904F903F902F900C94355DFC
:103830008FA598A988279C7081159C4011F00C9445
:10384000D4260C944B242FA538A932FD02C00C9429
:10385000D4262FB7F8944091580250915902D801BC
:103860005E968D919C915F97840F951F909359025E
:10387000809358022FBF0C94D4266091DD03709181
:10388000DE038EE59DE00E94F2944091D9035091B1
:10389000DA036091DB037091DC0322E085E59DE0B3
:1038A0000E9490941092DE031092DD031092D903CF
:1038B0001092DA031092DB031092DC030C94D426EE
:1038C00020918A0430918B04BFA5B4FF0AC0F8018F
:1038D00086859785A089B189F90181A792A7A3A7B9
:1038E000B4A7D90199964D915D916D917C919C976A
:1038F00022E08BE49DE00E9475940E940A5FE096AE
:103900000FB6F894DEBF0FBECDBFDF91CF911F91F0
:103910000F91FF90EF90DF90CF90BF90AF909F906E
:103920008F907F906F905F904F903F902F900C946E
:10393000777F8EEF9CE00E940F9580E00E94917F40
:103940000E94213E4B015C0128ECC22ED12CE12CBF
:10395000F12C0E94213EDC01CB0188199909AA09AA
:10396000BB09883E9340A105B10558F0E1E0CE1AAD
:10397000D108E108F108F8EE8F0EF3E09F1EA11CBC
:10398000B11CC114D104E104F10419F78FB7F89404
:10399000FFCF809189044FA558A952FF0BC0D801D1
:1039A0005E964D915D916D917C919197452B462B43
:1039B000472B19F0806891E002C08F7790E08093E8
:1039C0008904992319F087EE9CE08ECA8DEC9CE067
:1039D0008BCAEFA5F8A9F2FF06C0D8015E96ED905C
:1039E000FC905F9703C096E9E92EF12CF8018281E3
:1039F00082FF08C066A577A580A991A90E94D39AE5
:103A00008B0102C005E010E0B701FF0C880B990B99
:103A10000E94E1A06D877E878F87988B0E94463E2B
:103A20004B015C012091670130E035952795C90174
:103A3000330FAA0BBB0B89839A83AB83BC830530FE
:103A4000110534F0053111052CF004E110E002C03D
:103A500005E010E088E099E00E940F950E94114770
:103A60001092B2018091430190E0FC01EE57FD4FAE
:103A70002091670120838091920180939301298195
:103A80003A814B815C812D833E834F8358878AA284
:103A90009BA2ACA2BDA28AA69BA6ACA6BDA6198A73
:103AA0001A8A30EA3B8B41E44C8B1D8A1E8A50EA0D
:103AB0005F8B81E4888F1E8E1F8E18A219A21A8E2A
:103AC0001B8E1C8E1D8EC12CD12C76011EA21FA216
:103AD00018A619A691E0998F1C861B86A1E0A093D9
:103AE000030483E090E00E944C4B83E491E00E9449
:103AF0002047B0914901B98720904A0130904B018D
:103B0000E0914C01EA870E94463E2B013C01298549
:103B1000322D432D5A856D897E898F89988D0E941B
:103B2000DAA087FF06C0F985FD8B2E8A3F8A2A8599
:103B3000288F2985322D432D5A8569897A898B8969
:103B40009C890E94DAA087FD06C03985398B2A8AB4
:103B50003B8A4A854C8B598D2D853E854F85552353
:103B600089F158896985722D832D9A850E94C79B9A
:103B700018160CF041C0D301C20188199909AA098D
:103B8000BB09853CE9E09E07A105B105A8F1E091DC
:103B90004301F0E0EE57FD4F29813D81231B208337
:103BA0008EA39FA3A8A7B9A74D854D8B5E855E8B7D
:103BB0008F858F8B9889988F4AA25BA26CA27DA279
:103BC000198E1AC058896985722D832D9A850E9495
:103BD000DAA087FF11C0D301C2012AA13BA14CA1E9
:103BE0005DA1821B930BA40BB50B893833E19307BE
:103BF000A105B10508F083C620E030E040E252E4C0
:103C00006D857E858F8598890E947E999B01AC0188
:103C10006985722D832D9A850E94C79B18161CF406
:103C200088E998E030C0D301C2012AA53BA54CA584
:103C30005DA5821B930BA40BB50B893E9340A10598
:103C4000B10538F080E00E94105F4AA65BA66CA622
:103C50007DA6440C551C661C771C8AA19BA1ACA1B7
:103C6000BDA1481A590A6A0A7B0A481859086A0805
:103C70007B0891E849169FE4590692E169067104B0
:103C8000F0F08BE798E00E940395E0960FB6F89469
:103C9000DEBF0FBECDBFDF91CF911F910F91FF907F
:103CA000EF90DF90CF90BF90AF909F908F907F90DC
:103CB0006F905F904F903F902F900C941147AB8581
:103CC000BC850A171B070CF009CF80E298E00E9420
:103CD0000F950E941147BFA5B3FD02C00C94D426D6
:103CE000C0925B01D0925C01E0925D01F0925E01B6
:103CF0002A8D3B8D4C8D5D8D20935F01309360014B
:103D000040936101509362018E8D9F8DA8A1B9A14E
:103D10008093630190936401A0936501B093660161
:103D200081E0809346011BC080E00E947665F80127
:103D30008081918192FD02C00C94D426868D978D4E
:103D4000A0A1B1A10097A105B10511F40C94D4264E
:103D50000397A105B10519F480E00E94166480E084
:103D6000E0960FB6F894DEBF0FBECDBFDF91CF91C6
:103D70001F910F91FF90EF90DF90CF90BF90AF9089
:103D80009F908F907F906F905F904F903F902F907B
:103D90000C94CB9080E00E941664D8018D919C9188
:103DA000119792FD02C00C94D4265E968D919D9140
:103DB0000D90BC91A02D892B8A2B8B2B81F6F4C7FB
:103DC000EFA5F8A9F2FF5BC0F801868D978DA0A141
:103DD000B1A12FA538A922273870181619061A067E
:103DE0001B063CF5232B51F081E042A153A164A1B5
:103DF00075A1413051056105710509F080E0E0963B
:103E00000FB6F894DEBF0FBECDBFDF91CF911F91EB
:103E10000F91FF90EF90DF90CF90BF90AF909F9069
:103E20008F907F906F905F904F903F902F900C9469
:103E3000EC89232B51F081E042A153A164A175A12B
:103E4000413051056105710509F080E01092A4042C
:103E5000882349F08CED93E00E9411A2882319F089
:103E600080E00E9436501092D0031092D10310923D
:103E7000D2031092D30380E00E945D7E04C0809143
:103E8000A404811103C08BE199E02EC880EC9EE16F
:103E90002BC8EFA5F8A9F3FF87C7D8019296CD905C
:103EA000DD90ED90FC909597B4E0CB16D104E10441
:103EB000F10408F45FC678C78BEB9CE015C8EFA54A
:103EC000F8A9F2FD71C781E399E0A9C2E0960FB6A7
:103ED000F894DEBF0FBECDBFDF91CF911F910F9140
:103EE000FF90EF90DF90CF90BF90AF909F908F901A
:103EF0007F906F905F904F903F902F900C94156340
:103F00000E94156380E00E945D7E8091550490912F
:103F10005604A0915704B0915804809300019093E7
:103F20000101A0930201B093030180915904909183
:103F30005A04A0915B04B0915C04809304019093B7
:103F40000501A0930601B093070180915D04909153
:103F50005E04A0915F04B091600480930801909387
:103F60000901A0930A01B0930B0160918104709143
:103F7000820480918304909184040E94E1A02091A6
:103F8000390430913A0440913B0450913C040E9422
:103F900040A160930C0170930D0180930E019093EA
:103FA0000F018091850490918604A0918704B091BF
:103FB00088048093100190931101A0931201B09393
:103FC0001301F2C62FA538A930FF0DC0D8015A96AB
:103FD0007C905A975B969C905B975C968C905C97D4
:103FE0005D966C9008C070908504909086048090D7
:103FF00087046090880420E030E0A90160911001FE
:104000007091110180911201909113010E94DAA028
:1040100087FDCAC64FA558A9407455278FA598A9F2
:1040200065E0969587956A95E1F7982F91702FA591
:1040300038A974E0369527957A95E1F72170EFA5B8
:10404000F8A9A3E0F695E795AA95E1F76E2F6170C0
:10405000E0FDCDC52111CBC59111C9C5C3C51092D5
:104060002B04E0960FB6F894DEBF0FBECDBFDF91F4
:10407000CF911F910F91FF90EF90DF90CF90BF9065
:10408000AF909F908F907F906F905F904F903F90F8
:104090002F900C94848180E00E94CB908BE99CE06F
:1040A000BEC10E94415C0E94D754682F88E690E010
:1040B0006EA70E9411A26EA5681721F088E690E015
:1040C0000E942FA280E990EDA3E0B0E080939D01D3
:1040D00090939E01A0939F01B093A001109223039F
:1040E00010922403109225031092260380E49EE789
:1040F000A5E0B0E08093B5019093B601A093B7011D
:10410000B093B80181E79BEDA6EBB2E48093EF0199
:104110009093F001A093F101B093F2018DE495E545
:10412000A5EDB2E48093F3019093F401A093F5011F
:10413000B093F60189E39EE8ABE9B4E48093F7011C
:104140009093F801A093F901B093FA0180E090E018
:10415000A0E8BFE38093FB019093FC01A093FD01D5
:10416000B093FE0100E010E026E133E40093DF01AC
:104170001093E0012093E1013093E2010093E30109
:104180001093E4012093E5013093E60180E090E094
:10419000A0E4B1E48093E7019093E801A093E901E2
:1041A000B093EA0140E050E060E272E44093A6017F
:1041B0005093A7016093A8017093A9014093AA01AD
:1041C0005093AB016093AC017093AD018093AE014D
:1041D0009093AF01A093B001B093B10180E090E063
:1041E000A0E7B1E480937E0290937F02A0938002C7
:1041F000B09381028DEC9CECACECBEE380937A0230
:1042000090937B02A0937C02B0937D0280E090E0CB
:10421000AAE7B4E48093CF019093D001A093D10199
:10422000B093D2018093D3019093D401A093D50190
:10423000B093D60180E090E0A8ECB2E48093D7017F
:104240009093D801A093D901B093DA0140E050E0F7
:104250006AEF74E44093BF015093C0016093C101C1
:104260007093C2014093C3015093C4016093C50190
:104270007093C6018093C7019093C801A093C901B0
:10428000B093CA0100936E0210936F0220937002E4
:104290003093710200936A0210936B0220936C02B8
:1042A00030936D02009366021093670220936802B8
:1042B00030936902109262021092630210926402BB
:1042C0001092650210925E0210925F0210926002DC
:1042D0001092610210925A0210925B0210925C02DC
:1042E00010925D0280E090E0A2EDB2E480932101A3
:1042F00090932201A0932301B093240180E090E0E9
:10430000A4E3B2E48093270190932801A0932901AC
:10431000B0932A0180E090E0A0E2B1E480932F0105
:1043200090933001A0933101B093320180E090E08E
:10433000AAE7B5E480932B0190932C01A0932D0163
:10434000B0932E0181E0809346018CE8809359015F
:104350008CE380935A0180E090E0A0ECB1E480937C
:104360005B0190935C01A0935D01B0935E018EEAC6
:1043700097E4A1E6BFE380935F0190936001A0936F
:104380006101B093620180E090E0A0EAB2E4809322
:10439000630190936401A0936501B09366018FEF70
:1043A000809367011092190110921A0110921B015B
:1043B00010921C0110921501109216011092170113
:1043C0001092180121E030E030933801209337013A
:1043D00026E930E030933A012093390110923C01F4
:1043E00010923B018093920110923D0110923E0188
:1043F00010923F011092400180E00E94766581E0BA
:104400000E9416640E94415C0E94BD7FE0918A0474
:10441000F0918B0480810E94725185EC9BE0E096C4
:104420000FB6F894DEBF0FBECDBFDF91CF911F91C5
:104430000F91FF90EF90DF90CF90BF90AF909F9043
:104440008F907F906F905F904F903F902F900C9443
:104450000F95BFA5B5FF09C0F8014289538964894A
:10446000758988E293E00E94246322E043E353E3EA
:104470006FE971E485E69CE00E9475940E940A5FF2
:104480000E94476BAB01BC0122E082E59CE00E94E8
:104490009094E0960FB6F894DEBF0FBECDBFDF91CB
:1044A000CF911F910F91FF90EF90DF90CF90BF9031
:1044B000AF909F908F907F906F905F904F903F90C4
:1044C0002F900C940A5F2FA538A932FF0BC0F8017A
:1044D000868D978DA0A1B1A1181619061A061B0684
:1044E0000CF428C4C0904D01D0904E01E0904F01D3
:1044F000F090500120E030E0A901C701B6010E9410
:10450000DAA087FF0CC0F7FAF094F7F8F094C092A5
:104510004D01D0924E01E0924F01F092500183E4A0
:1045200091E0E0960FB6F894DEBF0FBECDBFDF91ED
:10453000CF911F910F91FF90EF90DF90CF90BF90A0
:10454000AF909F908F907F906F905F904F903F9033
:104550002F900C9490530E941563D8018D919C91DB
:10456000119792FF19C061E05E96CD90DD90ED90BD
:10457000FC9091978091E5021C141D041E041F04F9
:104580001CF060E08F7E01C080618093E50270E0E6
:1045900083E49CE00E94C994F8018081918193FF9B
:1045A00003C461E002A113A124A135A18091E50219
:1045B00010161106120613061CF060E08F7D01C074
:1045C00080628093E50270E08DE29CE00C942015FF
:1045D00081E080935002E8C38FA598A9887199273C
:1045E000489709F0E1C3D8011E962D913D914D9158
:1045F0005C9151971A966D917D918D919C911D972B
:104600000E9459696B017C01F801428553856485DC
:10461000758522E080E29CE00E947594D8011E9688
:104620004D915D916D917C91519722E08EE19CE0DE
:104630000E94759422E0B701A60189E19CE09AC32B
:104640002FA538A932FD0DC080918101867E80930F
:1046500081011092FF0C1092FE0C86EE9BE00C94F0
:10466000741785E09CE0E0960FB6F894DEBF0FBEAD
:10467000CDBFDF91CF911F910F91FF90EF90DF9011
:10468000CF90BF90AF909F908F907F906F905F90F2
:104690004F903F902F900C94A08F22FF85C382E310
:1046A0009FE00E94BD93C801E0960FB6F894DEBF6C
:1046B0000FBECDBFDF91CF911F910F91FF90EF9073
:1046C000DF90CF90BF90AF909F908F907F906F9032
:1046D0005F904F903F902F900C94F88F4FA558A962
:1046E00051FFDBCF0E941563F801EC5AFF4F808128
:1046F000E0960FB6F894DEBF0FBECDBFDF91CF912D
:104700001F910F91FF90EF90DF90CF90BF90AF90EF
:104710009F908F907F906F905F904F903F902F90E1
:104720000C9472510E94463E60936104709362043F
:10473000809363049093640437C30E9415630C94C0
:104740007116232B79F0DD24D39420E030E0A90109
:10475000F801628D738D848D958D0E94C79B18160C
:104760000CF0D12CE0908A04F0908B04D8015E9676
:104770006D917D918D919C9191970E94E1A000E0B7
:104780002D2DF70140810C946117232B79F0DD2446
:10479000D39420E030E0A901F801628D738D848DFF
:1047A000958D0E94C79B18160CF0D12CD8015E96EF
:1047B0006D917D918D919C9191970E94E1A000E077
:1047C0002D2D40E00C9461178FA598A992FF06C08B
:1047D000D8015E968D919C915F9705C08FEF90E018
:1047E00002C080E090E0E0960FB6F894DEBF0FBE06
:1047F000CDBFDF91CF911F910F91FF90EF90DF9090
:10480000CF90BF90AF909F908F907F906F905F9070
:104810004F903F902F900C94FE89EFA5F8A9F2FDE0
:1048200002C00C940A1BD8015E966D917C915F9733
:1048300092968D919C9193970E9445A20C940A1B8D
:104840008230A9F4EFA5F8A9F2FD02C00C940A1B6E
:10485000D8015E964D915D916D917C919197929664
:104860008D919C9193970E943DA20C940A1B8330DA
:1048700011F00C940A1BBFA5B3FD02C00C940A1BD7
:10488000F801428553856485758582A193A10E94B4
:1048900024630C940A1BD8015E96CD90DD90ED90B8
:1048A000FC909197BB24B394C114D104E104F104AA
:1048B00009F4B12CBFA5B3FF14C020E030E0A9017A
:1048C000D8011A966D917D918D919C911D970E94B2
:1048D000DAA0811102C060E001C062E08C2D0E946C
:1048E000E53D81E00E94555F83E090E00E944C4BE3
:1048F000F80182A10E948C3DB812F3CF55C24B85BE
:104900005C85452B09F41BC18EA09FA0A8A4B9A467
:10491000880E991EAA1EBB1E2EA13FA148A559A50F
:10492000281B390B4A0B5B0BCA01B9012D813E8153
:104930004F8158850E944AA2A50194010E94469980
:1049400089819A81AB81BC81820F931FA41FB51FFF
:10495000AC01BD014497A105B105B4F08091670198
:1049600090E04497092E000CAA0BBB0B49835A8395
:104970006B837C8384179507A607B7076CF489833C
:104980009A83AB83BC8308C024E130E040E050E070
:1049900029833A834B835C8320916701422F46959C
:1049A00050E060E070E089819A81AB81BC8148175A
:1049B00059076A077B0784F4822F90E001979C01D6
:1049C000990F440B550B89819A81AB81BC81281BBF
:1049D000390B4A0B5B0B04C029813A814B815C8106
:1049E0002D833E834F83588749815A816B817C8117
:1049F00080E099E00E94D8944D815E816F81788536
:104A00008BEF98E00E94D89422E049895A896B89FB
:104A10007C8984EF98E00E94759422E04D895E893C
:104A20006F89788D8DEE98E00E9490944B855C851F
:104A3000433051050CF483C06D817E818F81988550
:104A40000E94E1A020E030E040E850E40E9440A154
:104A50006B017C0129893A894B895C896D897E8942
:104A60008F89988D0E947D9920ED3FE049E450E4C4
:104A70000E9440A19B01AC01C701B6010E94619A4E
:104A80006B017C01C501B4010E94E1A020E030E08F
:104A90004AE754E40E94619A4B015C0122E0B701AD
:104AA000A60187EE98E00E94759422E0B501A4016A
:104AB00081EE98E00E9490942AE939E949E15FE3A8
:104AC000C701B6010E9440A16B017C019B01AC01B2
:104AD0000E947E99A50194010E94619A6A8F7B8F42
:104AE0008C8F9D8FA5019401C701B6010E9440A142
:104AF00020E030E040E05EE30E9440A16E8F7F8FB7
:104B000088A399A384ED98E00E94FF9422E0B70166
:104B1000A6018EEC98E00E94909422E04A8D5B8D75
:104B20006C8D7D8D88EC98E00E94909422E04E8DF3
:104B30005F8D68A179A182EC98E00E949094E09149
:104B40004301F0E0EE57FD4F8D815981850F808341
:104B50008B859C8501969C878B879D85998BAE85DF
:104B6000AA8BBF85BB8BE889EC8B53014201F1E036
:104B7000F98F42C8EFA5F8A9F2FF31C0F801A68C61
:104B8000B78CD80112968C91129782FF0AC09E961C
:104B90006D917D918D919C91D1970E94DA9AAB0194
:104BA00002C040E050E0B5018C2DE0960FB6F894BD
:104BB000DEBF0FBECDBFDF91CF911F910F91FF9050
:104BC000EF90DF90CF90BF90AF909F908F907F90AD
:104BD0006F905F904F903F902F900C94FB45A12CCD
:104BE000B12CCFCF452B09F492C081E004C0452BF6
:104BF00009F497C080E0A0900C01B0900D01C09026
:104C00000E01D0900F01811103C09923A1F080E023
:104C1000E0900801F090090100910A0110910B0148
:104C2000E0924504F0924604009347041093480430
:104C300081110AC006C010EFE12E13E2F12E04E745
:104C400019E42223A1F080E02091040130910501B4
:104C50004091060150910701209341043093420492
:104C60004093430450934404811107C004C020EFD3
:104C700033E244E759E4662389F0609100017091C2
:104C80000101809102019091030160933D047093B2
:104C90003E0480933F049093400404C060EF73E2AD
:104CA00084E799E46F928F929F927F920E94C986C7
:104CB0008091100190911101A0911201B091130106
:104CC0008093850490938604A0938704B09388040E
:104CD0000F900F900F900F9080E0E0960FB6F89431
:104CE000DEBF0FBECDBFDF91CF911F910F91FF901F
:104CF000EF90DF90CF90BF90AF909F908F907F907C
:104D00006F905F904F903F902F900C945D7E90EF4E
:104D1000A92E93E2B92E94E7C92E99E4D92E81E009
:104D200077CF80EFA82E83E2B82E84E7C82E89E4DF
:104D3000D82E6BCF0E942B49C0904D01D0904E01D0
:104D4000E0904F01F090500120E030E0A901C70150
:104D5000B6010E94C79B18163CF5F7FAF094F7F8D5
:104D6000F094C0924D01D0924E01E0924F01F0922A
:104D700050011AC0E0960FB6F894DEBF0FBECDBF4B
:104D8000DF91CF911F910F91FF90EF90DF90CF9027
:104D9000BF90AF909F908F907F906F905F904F905B
:104DA0003F902F900C949094E0960FB6F894DEBF4D
:104DB0000FBECDBFDF91CF911F910F91FF90EF906C
:104DC000DF90CF90BF90AF909F908F907F906F902B
:104DD0005F904F903F902F9008952F923F924F9267
:104DE0005F926F927F928F929F92AF92BF92CF927B
:104DF000DF92EF92FF920F931F93CF93DF93CDB784
:104E0000DEB7CE57D1090FB6F894DEBF0FBECDBFC7
:104E10008C01DC0118968D919C9119978531910533
:104E200009F45CC5F0F48430910520F4029708F48D
:104E300043C063C08A30910509F445C528F404973E
:104E400009F406C50C94B7378B30910509F43DC5BC
:104E5000449711F00C94B73781E080930F040C94C1
:104E6000C2378F31910511F40C94BD3068F48D3147
:104E7000910511F40C94D33010F00C949D304C97A4
:104E800009F430C50C94B7378A35910511F40C94A8
:104E9000EA3630F4819711F40C94C9350C94B73785
:104EA0008B35910511F40C94F6368C35910511F47F
:104EB0000C9405370C94B737F8018081918192FFEB
:104EC0000FC0468D578D60A171A180918904452B3B
:104ED000462B472B11F0806201C08F7D809389049F
:104EE000C8010E94D47A882311F40C94C23761E07F
:104EF00081E00E94A2760C94C23720915504309133
:104F00005604409157045091580425962CAF3DAF5C
:104F10004EAF5FAF25978091590490915A04A091AC
:104F20005B04B0915C0429968CAF9DAFAEAFBFAF70
:104F30002997C8010E94D47A882311F40C94C237AF
:104F4000D8011296EC901297E0FE07C096968D90CD
:104F50009D90AD90BC90999703C0812C912C5401E9
:104F6000F0900F04FF2051F023E333E34BEC51E4C6
:104F7000C501B4010E9440A14B015C01E1FE0CC0DF
:104F8000D8019A962D913D914D915C919D9729AFB5
:104F90003AAF4BAF5CAF04C019AE1AAE1BAE1CAE3D
:104FA000FF2071F023E333E34BEC51E469AD7AADBC
:104FB0008BAD9CAD0E9440A169AF7AAF8BAF9CAF27
:104FC0002091550430915604409157045091580453
:104FD0006B962CAF3DAF4EAF5FAF6B97809159048E
:104FE00090915A04A0915B04B0915C046F968CAFD1
:104FF0009DAFAEAFBFAF6F97209171043091720437
:105000004091730450917404AB962CAF3DAF4EAFFA
:105010005FAFAB978091390490913A04A0913B0423
:10502000B0913C04A3968CAF9DAFAEAFBFAFA3973A
:10503000E2FEEAC0D8019E962D913D914D915C9182
:10504000D19721962CAF3DAF4EAF5FAF2197FF2098
:1050500091F023E333E34BEC51E421966CAD7DAD4D
:105060008EAD9FAD21970E9440A121966CAF7DAF80
:105070008EAF9FAF219725962CAD3DAD4EAD5FAD68
:1050800025976B966CAD7DAD8EAD9FAD6B970E94F5
:105090007D992B013C0129962CAD3DAD4EAD5FAD08
:1050A00029976F966CAD7DAD8EAD9FAD6F970E94C9
:1050B0007D9969AF7AAF8BAF9CAF20E030E040E8DC
:1050C00050E421966CAD7DAD8EAD9FAD21970E94D1
:1050D00040A121962CAD3DAD4EAD5FAD21970E9414
:1050E00040A16B017C01A3019201C301B2010E94A6
:1050F00040A19B01AC01C701B6010E947D996B01E3
:105100007C0129AD3AAD4BAD5CADCA01B9010E943D
:1051100040A19B01AC01C701B6010E947D990E948C
:10512000899C6B017C0129AD3AAD4BAD5CADC301EF
:10513000B2010E94DA9B9B01AC01C701B6019058F5
:105140000E94619A6B017C019B01AC010E94CD9C85
:10515000882321F083E49FE00C94C039F801808516
:105160009185039721F4F7FAF094F7F8F09420E092
:1051700030E0A90121966CAD7DAD8EAD9FAD21973C
:105180000E94DAA087FF11C0F7FAF094F7F8F094C4
:1051900021962CAD3DAD4EAD5FAD21975058219677
:1051A0002CAF3DAF4EAF5FAF2197A701960169AD20
:1051B0007AAD8BAD9CAD0E9440A19B01AC01C301B7
:1051C000B2010E947D9920E030E040E05FE30E9460
:1051D00040A14B015C01A7019601C301B2010E94ED
:1051E00040A19B01AC0169AD7AAD8BAD9CAD0E9435
:1051F0007E9920E030E040E05FE30E9440A169AF8B
:105200007AAF8BAF9CAF0EC029AD3AAD4BAD5CAD64
:10521000C501B4010E94DA9B21966CAF7DAF8EAFC1
:105220009FAF219733243394D80118968D919C9188
:105230001997029709F0312CA501940125966CADC0
:105240007DAD8EAD9FAD25970E947E99AF966CAFD8
:105250007DAF8EAF9FAFAF9729AD3AAD4BAD5CAD93
:1052600029966CAD7DAD8EAD9FAD29970E947E993C
:10527000E3966CAF7DAF8EAF9FAFE3972091810433
:1052800030918204409183045091840461962CAF44
:105290003DAF4EAF5FAF6197D501C401B0582596C1
:1052A0008CAF9DAFAEAFBFAF259729AD3AAD4BAD3B
:1052B0005CAD505829962CAF3DAF4EAF5FAF2997EC
:1052C000AF962CAD3DAD4EAD5FADAF976B966CAD6F
:1052D0007DAD8EAD9FAD6B970E947D996B017C017A
:1052E000E3962CAD3DAD4EAD5FADE3976F966CADE3
:1052F0007DAD8EAD9FAD6F970E947D994B015C0196
:10530000A701960125966CAD7DAD8EAD9FAD25971D
:105310000E9440A12B013C01A501940129966CAD8E
:105320007DAD8EAD9FAD29970E9440A19B01AC0140
:10533000C301B2010E947E992B013C01A501940199
:1053400025966CAD7DAD8EAD9FAD25970E9440A199
:105350004B015C01A701960129966CAD7DAD8EAD28
:105360009FAD29970E9440A19B01AC01C501B401EA
:105370000E947D99A30192010E94FD996B017C011D
:10538000311009C02CEA35EC47E257E30E94DAA05D
:1053900018164CF41EC02DEB37E346E855EB0E947F
:1053A000DAA087FF0CC02BED3FE049EC50E4C701C9
:1053B000B6010E947E996B017C01332051F02BEDE8
:1053C0003FE049EC50E4C701B6010E947D996B01B2
:1053D0007C0121962CAD3DAD4EAD5FAD2197C7014F
:1053E000B6019F770E9440A14B015C012FE632E19C
:1053F00043E85AE30E94DAA087FF02C00C94C23748
:1054000040908504509086046090870470908804D2
:1054100020E030E040E752E4C301B2010E94C79BA4
:105420001816F4F42DE83AE748E85CE3C301B2014A
:105430000E9440A12B013C0120E030E040E450E418
:105440000E94C79B18162CF4412C512CB0E46B2EF3
:10545000762CA3019201C501B4010E94619A02C099
:10546000C501B4010E94099B0E94DA9A7EAF6DAF1C
:105470004DAD5EAD452B21F481E090E09EAF8DAF48
:10548000ADADBEADBD0180E090E00E94DFA04B015C
:105490005C019B01AC01C701B6010E94619A2D9687
:1054A0006CAF7DAF8EAF9FAF2D97AB966CAD7DADE2
:1054B0008EAD9FADAB9761962CAD3DAD4EAD5FAD62
:1054C0006197621B730B840B950B0E94E1A0A3965E
:1054D0002CAD3DAD4EAD5FADA3970E9440A1A5019F
:1054E00094010E94619AEB966CAF7DAF8EAF9FAF37
:1054F000EB9720E030E040E05FE32D966CAD7DADB2
:105500008EAD9FAD2D970E9440A12D962CAD3DAD47
:105510004EAD5FAD2D970E9440A19B01AC0160E0B4
:1055200070E080E89FE30E947D99E7966CAF7DAFC5
:105530008EAF9FAFE79761966CAD7DAD8EAD9FADA1
:1055400061970E94E1A0A3962CAD3DAD4EAD5FAD3D
:10555000A3970E9440A1A7966CAF7DAF8EAF9FAF7F
:10556000A79722963FAD22972E963FAF2E97239670
:105570004FAD239762964FAF629724962FAC249736
:1055800025963FAC2597912C81E090E067969FAFE0
:105590008EAF679767968EAD9FAD6797ADADBEAD89
:1055A0008A179B0708F020C1892D837029F40E9477
:1055B000614C80E00E94555F98E199150CF45BC046
:1055C000E7962CAD3DAD4EAD5FADE79729966CAD3E
:1055D0007DAD8EAD9FAD29970E9440A16B017C01EE
:1055E0002D962CAD3DAD4EAD5FAD2D972E966FAD8A
:1055F0002E9762967FAD6297C1010E9440A1A701DC
:1056000096010E947E997B018C01E7962CAD3DAD01
:105610004EAD5FADE7972E966FAD2E9762967FAD3C
:105620006297C1010E9440A12B013C012D962CAD37
:105630003DAD4EAD5FAD2D9729966CAD7DAD8EAD78
:105640009FAD29970E9440A19B01AC01C301B2010B
:105650000E947D992E966FAF2E9762967FAF6297CC
:105660001C019394C701D80129968CAF9DAFAEAFB2
:10567000BFAF29975FC06796AEADBFAD6797BD015D
:1056800080E090E00E94DFA02D962CAD3DAD4EADA8
:105690005FAD2D970E9440A14B015C010E945C9A76
:1056A0006B017C01C501B4010E947B9C4B015C0134
:1056B000A701960125966CAD7DAD8EAD9FAD25976A
:1056C0000E9440A12B013C01A501940169AD7AAD76
:1056D0008BAD9CAD0E9440A19B01AC01C301B20106
:1056E0000E947E992E966FAF2E9762967FAF62973B
:1056F0001C01A501940125966CAD7DAD8EAD9FADCD
:1057000025970E9440A14B015C01A701960169AD5C
:105710007AAD8BAD9CAD0E9440A19B01AC01C5014F
:10572000B4010E947D9929966CAF7DAF8EAF9FAF7B
:105730002997912CEB962CAD3DAD4EAD5FADEB971F
:10574000A7966CAD7DAD8EAD9FADA7970E947E995B
:10575000A7966CAF7DAF8EAF9FAFA79729962CAD64
:105760003DAD4EAD5FAD2997E3966CAD7DAD8EAD91
:105770009FADE3970E947E992B013C012E962FADA1
:105780002E9762963FAD6297A101AF966CAD7DAD4D
:105790008EAD9FADAF970E947E99B9E4BF93E4E7C9
:1057A000EF93F3E2FF9320EF2F93A796ACACBDAC41
:1057B000CEACDFACA79710EFE12E13E2F12E04E799
:1057C00019E4A30192010E94C98667964EAD5FADB0
:1057D00067974F5F5F4F67965FAF4EAF67970F90CA
:1057E0000F900F900F90D6CEAB966CAD7DAD8EAD79
:1057F0009FADAB970E94E1A0A3962CAD3DAD4EAD01
:105800005FADA3970E9440A129E42F9324E72F9333
:1058100023E22F9320EF2F935B016C0110EFE12E19
:1058200013E2F12E04E719E46F962CAD3DAD4EADB9
:105830005FAD6F976B966CAD7DAD8EAD9FAD6B9789
:105840000E94C9860F900F900F900F900C94C23752
:105850000E941563F8018081918193FF05C0C2A069
:10586000D3A0E4A0F5A003C0C12CD12C760192FFF7
:105870000DC0D8015E962D913D914D915C9191970F
:10588000A8EEB3E00E947CA26B017C010E94463E20
:10589000C60ED71EE81EF91E0E94463EA7019601BD
:1058A000261B370B480B590BDA01C90181159449A6
:1058B000A543B74710F00C94C2370E94614C81E0B9
:1058C0000E94555FE9CF61E001C060E080918A04E9
:1058D00090918B040E940E8B0C94C23710920F048F
:1058E0000C94C23720E030E048E452E46091510467
:1058F0007091520480915304909154040E947E99B7
:105900002091F7013091F8014091F9015091FA018D
:105910000E9440A10E94D39A60936D0470936E041C
:1059200080936F049093700480E090E0A0E4B1E471
:105930008093850490938604A0938704B093880491
:1059400061E081E00E94A27680E00E945D7ED80145
:105950008D919C91AC014877552721E0452B09F0AA
:1059600020E086FF08C010928104109282041092F9
:1059700083041092840421110C94E6379C0128734F
:105980003327232B09F4D7C39C0175E0369527955F
:105990007A95E1F7B22FB1703B2E9C01E3E036958A
:1059A0002795EA95E1F7E22FE1702E2E209155041C
:1059B00030915604409157045091580429AF3AAFA2
:1059C0004BAF5CAF2091590430915A0440915B0475
:1059D00050915C0421962CAF3DAF4EAF5FAF219745
:1059E00020915D0430915E0440915F045091600409
:1059F00025962CAF3DAF4EAF5FAF259790918904B0
:105A000091609093890484FFDDC01092230410926A
:105A1000240410922504109226044091070450910A
:105A200008046091090470910A048091C403909164
:105A3000C503A091C603B091C703481B590B6A0B5D
:105A40007B0B88279927DC01841B950BA60BB70BD2
:105A50008093790490937A04A0937B04B0937C04A0
:105A60008091E50280648093E5029A01AB01220FE8
:105A7000331F441F551F992493949F929F928091A6
:105A8000AD018F938091AC018F938091AB018F9387
:105A90008091AA018F93A12CB12C6501E12CF12CEE
:105AA000870160E070E0CB010E94E88580910704E7
:105AB00090910804A0910904B0910A04809379049C
:105AC00090937A04A0937B04B0937C0420E030E0B0
:105AD00040EA50E46091F3017091F4018091F50186
